{
  "_format": "hh-sol-artifact-1",
  "contractName": "Counter",
  "sourceName": "contracts/Counter.sol",
  "abi": [
    {
      "inputs": [],
      "stateMutability": "nonpayable",
      "type": "constructor"
    },
    {
      "inputs": [],
      "name": "count",
      "outputs": [
        {
          "internalType": "uint256",
          "name": "",
          "type": "uint256"
        }
      ],
      "stateMutability": "view",
      "type": "function"
    },
    {
      "inputs": [],
      "name": "decrement",
      "outputs": [],
      "stateMutability": "nonpayable",
      "type": "function"
    },
    {
      "inputs": [],
      "name": "increment",
      "outputs": [],
      "stateMutability": "nonpayable",
      "type": "function"
    },
    {
      "inputs": [
        {
          "internalType": "uint256",
          "name": "_newCount",
          "type": "uint256"
        }
      ],
      "name": "set",
      "outputs": [],
      "stateMutability": "nonpayable",
      "type": "function"
    }
  ],
  "bytecode": "0x6080604052348015600f57600080fd5b5060008081905550610305806100266000396000f3fe608060405234801561001057600080fd5b506004361061004c5760003560e01c806306661abd146100515780632baeceb71461006f57806360fe47b114610079578063d09de08a14610095575b600080fd5b61005961009f565b6040516100669190610142565b60405180910390f35b6100776100a5565b005b610093600480360381019061008e919061018e565b610104565b005b61009d61010e565b005b60005481565b60008054116100e9576040517f08c379a00000000000000000000000000000000000000000000000000000000081526004016100e090610218565b60405180910390fd5b60016000808282546100fb9190610267565b92505081905550565b8060008190555050565b6001600080828254610120919061029b565b92505081905550565b6000819050919050565b61013c81610129565b82525050565b60006020820190506101576000830184610133565b92915050565b600080fd5b61016b81610129565b811461017657600080fd5b50565b60008135905061018881610162565b92915050565b6000602082840312156101a4576101a361015d565b5b60006101b284828501610179565b91505092915050565b600082825260208201905092915050565b7f436f756e742063616e6e6f74206265206e656761746976650000000000000000600082015250565b60006102026018836101bb565b915061020d826101cc565b602082019050919050565b60006020820190508181036000830152610231816101f5565b9050919050565b7f4e487b7100000000000000000000000000000000000000000000000000000000600052601160045260246000fd5b600061027282610129565b915061027d83610129565b925082820390508181111561029557610294610238565b5b92915050565b60006102a682610129565b91506102b183610129565b92508282019050808211156102c9576102c8610238565b5b9291505056fea264697066735822122017163abe344c7d0064aca995de20ea3289ff96d895fb838078d6ef6b9e7907e064736f6c634300081c0033",
  "linkReferences": {},
  "deployedLinkReferences": {}
}